{
  "contractName": "voting",
  "abi": [
    {
      "constant": true,
      "inputs": [],
      "name": "round",
      "outputs": [
        {
          "name": "",
          "type": "uint256"
        }
      ],
      "payable": false,
      "stateMutability": "view",
      "type": "function"
    },
    {
      "constant": true,
      "inputs": [],
      "name": "n",
      "outputs": [
        {
          "name": "",
          "type": "uint256"
        }
      ],
      "payable": false,
      "stateMutability": "view",
      "type": "function"
    },
    {
      "constant": true,
      "inputs": [
        {
          "name": "",
          "type": "uint256"
        }
      ],
      "name": "candidates",
      "outputs": [
        {
          "name": "name",
          "type": "string"
        },
        {
          "name": "value",
          "type": "uint256"
        },
        {
          "name": "votes",
          "type": "uint256"
        }
      ],
      "payable": false,
      "stateMutability": "view",
      "type": "function"
    },
    {
      "constant": true,
      "inputs": [],
      "name": "all_add_vote",
      "outputs": [
        {
          "name": "",
          "type": "bool"
        }
      ],
      "payable": false,
      "stateMutability": "view",
      "type": "function"
    },
    {
      "constant": true,
      "inputs": [],
      "name": "all_vote",
      "outputs": [
        {
          "name": "",
          "type": "bool"
        }
      ],
      "payable": false,
      "stateMutability": "view",
      "type": "function"
    },
    {
      "constant": true,
      "inputs": [],
      "name": "tally_complete",
      "outputs": [
        {
          "name": "",
          "type": "bool"
        }
      ],
      "payable": false,
      "stateMutability": "view",
      "type": "function"
    },
    {
      "constant": true,
      "inputs": [],
      "name": "owner",
      "outputs": [
        {
          "name": "",
          "type": "address"
        }
      ],
      "payable": false,
      "stateMutability": "view",
      "type": "function"
    },
    {
      "constant": true,
      "inputs": [
        {
          "name": "",
          "type": "uint256"
        }
      ],
      "name": "voters",
      "outputs": [
        {
          "name": "voter_address",
          "type": "address"
        },
        {
          "name": "participant",
          "type": "bool"
        },
        {
          "name": "voted",
          "type": "bool"
        },
        {
          "name": "additional_voted",
          "type": "bool"
        },
        {
          "name": "public_key",
          "type": "uint256"
        },
        {
          "name": "public_key_inv",
          "type": "uint256"
        }
      ],
      "payable": false,
      "stateMutability": "view",
      "type": "function"
    },
    {
      "inputs": [
        {
          "name": "_owner",
          "type": "address"
        },
        {
          "name": "time",
          "type": "uint256"
        }
      ],
      "payable": false,
      "stateMutability": "nonpayable",
      "type": "constructor"
    },
    {
      "constant": false,
      "inputs": [],
      "name": "enroll_round",
      "outputs": [
        {
          "name": "",
          "type": "uint256"
        }
      ],
      "payable": false,
      "stateMutability": "nonpayable",
      "type": "function"
    },
    {
      "constant": false,
      "inputs": [
        {
          "name": "time",
          "type": "uint256"
        }
      ],
      "name": "vote_round",
      "outputs": [
        {
          "name": "",
          "type": "uint256"
        }
      ],
      "payable": false,
      "stateMutability": "nonpayable",
      "type": "function"
    },
    {
      "constant": false,
      "inputs": [],
      "name": "tally_round",
      "outputs": [
        {
          "name": "",
          "type": "uint256"
        }
      ],
      "payable": false,
      "stateMutability": "nonpayable",
      "type": "function"
    },
    {
      "constant": false,
      "inputs": [],
      "name": "additional_round",
      "outputs": [
        {
          "name": "",
          "type": "uint256"
        }
      ],
      "payable": false,
      "stateMutability": "nonpayable",
      "type": "function"
    },
    {
      "constant": true,
      "inputs": [],
      "name": "remain_time",
      "outputs": [
        {
          "name": "",
          "type": "int256"
        }
      ],
      "payable": false,
      "stateMutability": "view",
      "type": "function"
    },
    {
      "constant": false,
      "inputs": [
        {
          "name": "name",
          "type": "string"
        }
      ],
      "name": "enroll_candidate",
      "outputs": [
        {
          "name": "success",
          "type": "bool"
        }
      ],
      "payable": false,
      "stateMutability": "nonpayable",
      "type": "function"
    },
    {
      "constant": false,
      "inputs": [
        {
          "name": "public_key",
          "type": "uint256"
        },
        {
          "name": "public_key_inv",
          "type": "uint256"
        }
      ],
      "name": "enroll_voter",
      "outputs": [
        {
          "name": "success",
          "type": "bool"
        }
      ],
      "payable": false,
      "stateMutability": "nonpayable",
      "type": "function"
    },
    {
      "constant": false,
      "inputs": [
        {
          "name": "voting_value",
          "type": "uint256"
        }
      ],
      "name": "additional_vote",
      "outputs": [
        {
          "name": "success",
          "type": "bool"
        }
      ],
      "payable": false,
      "stateMutability": "nonpayable",
      "type": "function"
    },
    {
      "constant": false,
      "inputs": [
        {
          "name": "voting_value",
          "type": "uint256"
        }
      ],
      "name": "vote",
      "outputs": [
        {
          "name": "success",
          "type": "bool"
        }
      ],
      "payable": false,
      "stateMutability": "nonpayable",
      "type": "function"
    },
    {
      "constant": false,
      "inputs": [],
      "name": "tallying",
      "outputs": [],
      "payable": false,
      "stateMutability": "nonpayable",
      "type": "function"
    },
    {
      "constant": true,
      "inputs": [],
      "name": "get_winner",
      "outputs": [
        {
          "name": "win",
          "type": "uint256"
        }
      ],
      "payable": false,
      "stateMutability": "view",
      "type": "function"
    },
    {
      "constant": true,
      "inputs": [],
      "name": "get_k",
      "outputs": [
        {
          "name": "_k",
          "type": "uint256"
        }
      ],
      "payable": false,
      "stateMutability": "view",
      "type": "function"
    },
    {
      "constant": true,
      "inputs": [],
      "name": "get_n",
      "outputs": [
        {
          "name": "_n",
          "type": "uint256"
        }
      ],
      "payable": false,
      "stateMutability": "view",
      "type": "function"
    },
    {
      "constant": true,
      "inputs": [],
      "name": "get_vote_num",
      "outputs": [
        {
          "name": "",
          "type": "uint256"
        }
      ],
      "payable": false,
      "stateMutability": "view",
      "type": "function"
    },
    {
      "constant": true,
      "inputs": [
        {
          "name": "num",
          "type": "uint256"
        }
      ],
      "name": "get_candidate",
      "outputs": [
        {
          "name": "name",
          "type": "string"
        },
        {
          "name": "value",
          "type": "uint256"
        }
      ],
      "payable": false,
      "stateMutability": "view",
      "type": "function"
    },
    {
      "constant": true,
      "inputs": [
        {
          "name": "num",
          "type": "uint256"
        }
      ],
      "name": "get_voter",
      "outputs": [
        {
          "name": "pub_key",
          "type": "uint256"
        },
        {
          "name": "pub_key_inv",
          "type": "uint256"
        },
        {
          "name": "voted",
          "type": "bool"
        }
      ],
      "payable": false,
      "stateMutability": "view",
      "type": "function"
    },
    {
      "constant": true,
      "inputs": [],
      "name": "get_pqg",
      "outputs": [
        {
          "name": "_p",
          "type": "uint256"
        },
        {
          "name": "_q",
          "type": "uint256"
        },
        {
          "name": "_g",
          "type": "uint256"
        }
      ],
      "payable": false,
      "stateMutability": "view",
      "type": "function"
    }
  ],
  "bytecode": "0x60806040523480156200001157600080fd5b50604051604080620017458339810180604052810190808051906020019092919080519060200190929190505050816000806101000a81548173ffffffffffffffffffffffffffffffffffffffff021916908373ffffffffffffffffffffffffffffffffffffffff1602179055506210a84b6001819055506202c6b7600281905550600960038190555060006006819055506000600781905550600060088190555060006009819055506000600c819055506000600a60016101000a81548160ff0219169083151502179055506000600a60006101000a81548160ff0219169083151502179055506001600d819055506000600e60006101000a81548160ff02191690831515021790555061014060405190810160405280600260ff168152602001600360ff168152602001600560ff168152602001600760ff168152602001600b60ff168152602001600d60ff168152602001601160ff168152602001601360ff168152602001601760ff168152602001601d60ff16815250600f90600a6200019d929190620001b4565b504260048190555080600581905550505062000226565b82600a8101928215620001eb579160200282015b82811115620001ea578251829060ff16905591602001919060010190620001c8565b5b509050620001fa9190620001fe565b5090565b6200022391905b808211156200021f57600081600090555060010162000205565b5090565b90565b61150f80620002366000396000f300608060405260043610610149576000357c0100000000000000000000000000000000000000000000000000000000900463ffffffff1680630121b93f1461014e57806303eba57214610193578063146ca531146101aa578063249d922f146101d55780632e52d6061461021a5780633477ee2e146102455780633fa80bb6146102f95780634b0c27c4146103485780634bdd98d8146103735780636509b6051461039e578063735af7ce146103cd578063798d174f1461040e5780637aeb47271461044757806381dc7725146104765780638686e8e1146104a15780638da5cb5b146104d057806395fc395d14610527578063a42196e9146105d4578063ad5231ed14610655578063b005a70114610680578063bb4c4f1c146106ab578063cf5d53f1146106d6578063d4a6b0a214610701578063da58c7d914610754578063f6cbf8e3146107f0575b600080fd5b34801561015a57600080fd5b506101796004803603810190808035906020019092919050505061081b565b604051808215151515815260200191505060405180910390f35b34801561019f57600080fd5b506101a86109f4565b005b3480156101b657600080fd5b506101bf610ad6565b6040518082815260200191505060405180910390f35b3480156101e157600080fd5b5061020060048036038101908080359060200190929190505050610adc565b604051808215151515815260200191505060405180910390f35b34801561022657600080fd5b5061022f610d0e565b6040518082815260200191505060405180910390f35b34801561025157600080fd5b5061027060048036038101908080359060200190929190505050610d14565b6040518080602001848152602001838152602001828103825285818151815260200191508051906020019080838360005b838110156102bc5780820151818401526020810190506102a1565b50505050905090810190601f1680156102e95780820380516001836020036101000a031916815260200191505b5094505050505060405180910390f35b34801561030557600080fd5b5061032e6004803603810190808035906020019092919080359060200190929190505050610dd6565b604051808215151515815260200191505060405180910390f35b34801561035457600080fd5b5061035d610f7e565b6040518082815260200191505060405180910390f35b34801561037f57600080fd5b50610388610f8f565b6040518082815260200191505060405180910390f35b3480156103aa57600080fd5b506103b3610fa1565b604051808215151515815260200191505060405180910390f35b3480156103d957600080fd5b506103f860048036038101908080359060200190929190505050610fb4565b6040518082815260200191505060405180910390f35b34801561041a57600080fd5b50610423610fd6565b60405180848152602001838152602001828152602001935050505060405180910390f35b34801561045357600080fd5b5061045c610fef565b604051808215151515815260200191505060405180910390f35b34801561048257600080fd5b5061048b611002565b6040518082815260200191505060405180910390f35b3480156104ad57600080fd5b506104b6611012565b604051808215151515815260200191505060405180910390f35b3480156104dc57600080fd5b506104e5611025565b604051808273ffffffffffffffffffffffffffffffffffffffff1673ffffffffffffffffffffffffffffffffffffffff16815260200191505060405180910390f35b34801561053357600080fd5b506105526004803603810190808035906020019092919050505061104a565b6040518080602001838152602001828103825284818151815260200191508051906020019080838360005b8381101561059857808201518184015260208101905061057d565b50505050905090810190601f1680156105c55780820380516001836020036101000a031916815260200191505b50935050505060405180910390f35b3480156105e057600080fd5b5061063b600480360381019080803590602001908201803590602001908080601f016020809104026020016040519081016040528093929190818152602001838380828437820191505050505050919291929050505061120e565b604051808215151515815260200191505060405180910390f35b34801561066157600080fd5b5061066a6112c5565b6040518082815260200191505060405180910390f35b34801561068c57600080fd5b5061069561130c565b6040518082815260200191505060405180910390f35b3480156106b757600080fd5b506106c0611316565b6040518082815260200191505060405180910390f35b3480156106e257600080fd5b506106eb61133b565b6040518082815260200191505060405180910390f35b34801561070d57600080fd5b5061072c60048036038101908080359060200190929190505050611345565b6040518084815260200183815260200182151515158152602001935050505060405180910390f35b34801561076057600080fd5b5061077f600480360381019080803590602001909291905050506113a9565b604051808773ffffffffffffffffffffffffffffffffffffffff1673ffffffffffffffffffffffffffffffffffffffff168152602001861515151581526020018515151515815260200184151515158152602001838152602001828152602001965050505050505060405180910390f35b3480156107fc57600080fd5b5061080561142c565b6040518082815260200191505060405180910390f35b60006001600b5414801561083457506005546004544203105b151561083f57600080fd5b601a6000601b60003373ffffffffffffffffffffffffffffffffffffffff1673ffffffffffffffffffffffffffffffffffffffff16815260200190815260200160002054815260200190815260200160002060000160159054906101000a900460ff1615801561090e5750601a6000601b60003373ffffffffffffffffffffffffffffffffffffffff1673ffffffffffffffffffffffffffffffffffffffff16815260200190815260200160002054815260200190815260200160002060000160149054906101000a900460ff165b151561091957600080fd5b81600d60008282540292505081905550600254600d600082825481151561093c57fe5b06925050819055506001601a6000601b60003373ffffffffffffffffffffffffffffffffffffffff1673ffffffffffffffffffffffffffffffffffffffff16815260200190815260200160002054815260200190815260200160002060000160156101000a81548160ff021916908315150217905550600160086000828254019250508190555060075460085414156109eb576001600a60016101000a81548160ff0219169083151502179055505b60019050919050565b60008060006002600b54148015610a1e575060001515600e60009054906101000a900460ff161515145b1515610a2957600080fd5b6000925060009150600090505b600654811015610ab657600092505b600060018401600f83600a81101515610a5a57fe5b01540a600d54811515610a6957fe5b061415610a7b57600183019250610a45565b81831115610a8e5780600c819055508291505b8260196000838152602001908152602001600020600201819055508080600101915050610a36565b6001600e60006101000a81548160ff021916908315150217905550505050565b600b5481565b60006003600b54141515610aef57600080fd5b601a6000601b60003373ffffffffffffffffffffffffffffffffffffffff1673ffffffffffffffffffffffffffffffffffffffff16815260200190815260200160002054815260200190815260200160002060000160159054906101000a900460ff168015610bbd5750601a6000601b60003373ffffffffffffffffffffffffffffffffffffffff1673ffffffffffffffffffffffffffffffffffffffff16815260200190815260200160002054815260200190815260200160002060000160149054906101000a900460ff165b8015610c285750601a6000601b60003373ffffffffffffffffffffffffffffffffffffffff1673ffffffffffffffffffffffffffffffffffffffff16815260200190815260200160002054815260200190815260200160002060000160169054906101000a900460ff165b1515610c3357600080fd5b81600d60008282540292505081905550600254600d6000828254811515610c5657fe5b06925050819055506001601a6000601b60003373ffffffffffffffffffffffffffffffffffffffff1673ffffffffffffffffffffffffffffffffffffffff16815260200190815260200160002054815260200190815260200160002060000160166101000a81548160ff02191690831515021790555060016009600082825401925050819055506008546009541415610d05576001600a60006101000a81548160ff0219169083151502179055505b60019050919050565b60075481565b6019602052806000526040600020600091509050806000018054600181600116156101000203166002900480601f016020809104026020016040519081016040528092919081815260200182805460018160011615610100020316600290048015610dc05780601f10610d9557610100808354040283529160200191610dc0565b820191906000526020600020905b815481529060010190602001808311610da357829003601f168201915b5050505050908060010154908060020154905083565b600080600b54148015610dee57506005546004544203105b1515610df957600080fd5b33601a6000600754815260200190815260200160002060000160006101000a81548173ffffffffffffffffffffffffffffffffffffffff021916908373ffffffffffffffffffffffffffffffffffffffff16021790555082601a600060075481526020019081526020016000206001018190555081601a60006007548152602001908152602001600020600201819055506000601a6000600754815260200190815260200160002060000160156101000a81548160ff0219169083151502179055506000601a6000600754815260200190815260200160002060000160166101000a81548160ff0219169083151502179055506001601a6000600754815260200190815260200160002060000160146101000a81548160ff021916908315150217905550600754601b60003373ffffffffffffffffffffffffffffffffffffffff1673ffffffffffffffffffffffffffffffffffffffff1681526020019081526020016000208190555060016007600082825401925050819055506001905092915050565b600080600b81905550600b54905090565b60006003600b81905550600b54905090565b600a60009054906101000a900460ff1681565b60006001600b819055504260048190555081600581905550600b549050919050565b6000806000600154600254600354925092509250909192565b600a60019054906101000a900460ff1681565b6000600454426005540301905090565b600e60009054906101000a900460ff1681565b6000809054906101000a900473ffffffffffffffffffffffffffffffffffffffff1681565b60606000801515600e60009054906101000a900460ff161515141561113b57601960008481526020019081526020016000206000016019600085815260200190815260200160002060010154818054600181600116156101000203166002900480601f01602080910402602001604051908101604052809291908181526020018280546001816001161561010002031660029004801561112b5780601f106111005761010080835404028352916020019161112b565b820191906000526020600020905b81548152906001019060200180831161110e57829003601f168201915b5050505050915091509150611209565b601960008481526020019081526020016000206000016019600085815260200190815260200160002060020154818054600181600116156101000203166002900480601f0160208091040260200160405190810160405280929190818152602001828054600181600116156101000203166002900480156111fd5780601f106111d2576101008083540402835291602001916111fd565b820191906000526020600020905b8154815290600101906020018083116111e057829003601f168201915b50505050509150915091505b915091565b600080600b5414801561122657506005546004544203105b151561123157600080fd5b81601960006006548152602001908152602001600020600001908051906020019061125d92919061143e565b50600f600654600a8110151561126f57fe5b015460196000600654815260200190815260200160002060010181905550600060196000600654815260200190815260200160002060020181905550600160066000828254019250508190555060019050919050565b6000601b60003373ffffffffffffffffffffffffffffffffffffffff1673ffffffffffffffffffffffffffffffffffffffff16815260200190815260200160002054905090565b6000600654905090565b6000600e60009054906101000a900460ff16151561133357600080fd5b600c54905090565b6000600754905090565b6000806000601a600085815260200190815260200160002060010154601a600086815260200190815260200160002060020154601a600087815260200190815260200160002060000160159054906101000a900460ff169250925092509193909250565b601a6020528060005260406000206000915090508060000160009054906101000a900473ffffffffffffffffffffffffffffffffffffffff16908060000160149054906101000a900460ff16908060000160159054906101000a900460ff16908060000160169054906101000a900460ff16908060010154908060020154905086565b60006002600b81905550600b54905090565b828054600181600116156101000203166002900490600052602060002090601f016020900481019282601f1061147f57805160ff19168380011785556114ad565b828001600101855582156114ad579182015b828111156114ac578251825591602001919060010190611491565b5b5090506114ba91906114be565b5090565b6114e091905b808211156114dc5760008160009055506001016114c4565b5090565b905600a165627a7a723058203316c05ae0a85ed5c86fb7383d50d481750bea9ea14540e0858f5fb0aa1f4b850029",
  "source": "pragma solidity ^0.4.24;\n\ncontract voting {\n    address public owner;\n    uint p;\n    uint q;\n    uint g;\n    uint now_time;\n    uint term_time;\n    uint k;\n    uint public n;\n    uint vote_num;\n    uint add_vote_num;\n    bool public all_add_vote;\n    bool public all_vote;\n    uint public round;\n    uint winner;\n    uint tally_value;\n    bool public tally_complete;\n    uint[10] primes;\n    mapping (uint => candidate) public candidates; \n    mapping (uint => voter) public voters; \n    mapping (address => uint) voter_number;\n    \n    struct voter{\n        address voter_address;\n        bool participant;\n        bool voted;\n        bool additional_voted;\n        uint public_key;\n        uint public_key_inv;\n    }\n    \n    struct candidate{\n        string name;\n        uint value;\n        uint votes;\n    }\n    constructor(address _owner, uint time) public {\n        owner = _owner;\n        p = 1091659;\n        q = 181943;\n        g = 9;\n        k = 0;\n        n = 0;\n        vote_num = 0;\n        add_vote_num = 0;\n        winner = 0;\n        all_vote = false;\n        all_add_vote = false;\n        tally_value = 1;\n        tally_complete = false;\n        primes = [2,3,5,7,11,13,17,19,23,29];\n        now_time = block.timestamp;\n        term_time = time;\n    }\n    function enroll_round() public returns (uint){\n        round = 0;\n        return round;\n    }\n    function vote_round(uint time) public returns (uint){\n        round = 1;\n        now_time = block.timestamp;\n        term_time = time;\n        return round;\n    }\n    function tally_round() public returns (uint){\n        round = 2;\n        return round;\n    }\n\n    function additional_round() public returns (uint){\n        round = 3;\n        return round;\n    }\n\n    function remain_time() public view returns(int){\n        return int(term_time - block.timestamp + now_time);\n    }\n    \n    function enroll_candidate(string name) public returns (bool success){\n        require(round == 0 && ((block.timestamp - now_time) < term_time));\n        candidates[k].name = name;\n        candidates[k].value = primes[k];\n        candidates[k].votes = 0;\n        k += 1;\n        return true;\n    }\n    \n    function enroll_voter(uint public_key, uint public_key_inv) public returns (bool success){\n        require(round == 0 && ((block.timestamp - now_time) < term_time));\n        voters[n].voter_address = msg.sender;\n        voters[n].public_key = public_key;\n        voters[n].public_key_inv = public_key_inv;\n        voters[n].voted = false;\n        voters[n].additional_voted = false;\n        voters[n].participant = true;\n        voter_number[msg.sender] = n;\n        n += 1;\n        return true;\n    }\n    \n    function additional_vote(uint voting_value) public returns (bool success){\n        require(round == 3);\n        require(voters[voter_number[msg.sender]].voted && voters[voter_number[msg.sender]].participant && voters[voter_number[msg.sender]].additional_voted);\n        tally_value *= voting_value;\n        tally_value %= q;\n        voters[voter_number[msg.sender]].additional_voted = true;\n        add_vote_num += 1;\n        if(add_vote_num == vote_num){\n            all_add_vote = true;\n        }\n        return true;\n    }\n        \n    function vote(uint voting_value) public returns (bool success){\n        require(round == 1 && ((block.timestamp - now_time) < term_time));\n        require(!voters[voter_number[msg.sender]].voted && voters[voter_number[msg.sender]].participant);\n        tally_value *= voting_value;\n        tally_value %= q;\n        voters[voter_number[msg.sender]].voted = true;\n        vote_num +=1;\n        if(vote_num == n){\n            all_vote=true;\n        }\n        return true;\n    }\n\n    function tallying() public{\n        require(round == 2 && tally_complete == false);\n        uint votes = 0;\n        uint max = 0;\n        for(uint i=0; i<k;i++){\n            votes = 0;\n            while(tally_value % (primes[i] ** (votes + 1)) == 0){\n                votes = votes + 1;\n            }\n            if (votes > max){\n                winner = i;\n                max = votes;\n            }\n            candidates[i].votes = votes;\n        }\n        tally_complete = true;\n    }\n    \n    function get_winner() public view returns(uint win){\n        require(tally_complete);\n        return winner;\n    }\n    \n    function get_k() public view returns (uint _k){\n        return k;\n    }\n    \n    function get_n() public view returns (uint _n){\n        return n;\n    }\n\n    function get_vote_num() public view returns (uint){\n        return voter_number[msg.sender];\n    }\n    \n    function get_candidate(uint num) public view returns (string name, uint value){\n        if(tally_complete == false){\n            return (candidates[num].name, candidates[num].value);\n        }\n        else{\n            return (candidates[num].name, candidates[num].votes);\n        }\n    }\n    \n    function get_voter(uint num) public view returns (uint pub_key, uint pub_key_inv, bool voted){\n        return (voters[num].public_key, voters[num].public_key_inv, voters[num].voted);\n    }\n\n    function get_pqg() public view returns (uint _p, uint _q, uint _g){\n        return (p,q,g);\n    }\n    \n}\n",
  "sourcePath": "C:\\kalytn_voting_expand\\contracts\\voting.sol",
  "compiler": {
    "name": "solc",
    "version": "0.4.25+commit.59dbf8f1.Emscripten.clang"
  },
  "schemaVersion": "2.0.2",
  "updatedAt": "2021-08-20T02:45:01.901Z"
}